{
  "_format": "hh-sol-artifact-1",
  "contractName": "AbleToken",
  "sourceName": "contracts/AbleToken.sol",
  "abi": [
    {
      "inputs": [
        {
          "internalType": "address",
          "name": "target",
          "type": "address"
        }
      ],
      "name": "AddressEmptyCode",
      "type": "error"
    },
    {
      "inputs": [
        {
          "internalType": "address",
          "name": "implementation",
          "type": "address"
        }
      ],
      "name": "ERC1967InvalidImplementation",
      "type": "error"
    },
    {
      "inputs": [],
      "name": "ERC1967NonPayable",
      "type": "error"
    },
    {
      "inputs": [
        {
          "internalType": "address",
          "name": "spender",
          "type": "address"
        },
        {
          "internalType": "uint256",
          "name": "allowance",
          "type": "uint256"
        },
        {
          "internalType": "uint256",
          "name": "needed",
          "type": "uint256"
        }
      ],
      "name": "ERC20InsufficientAllowance",
      "type": "error"
    },
    {
      "inputs": [
        {
          "internalType": "address",
          "name": "sender",
          "type": "address"
        },
        {
          "internalType": "uint256",
          "name": "balance",
          "type": "uint256"
        },
        {
          "internalType": "uint256",
          "name": "needed",
          "type": "uint256"
        }
      ],
      "name": "ERC20InsufficientBalance",
      "type": "error"
    },
    {
      "inputs": [
        {
          "internalType": "address",
          "name": "approver",
          "type": "address"
        }
      ],
      "name": "ERC20InvalidApprover",
      "type": "error"
    },
    {
      "inputs": [
        {
          "internalType": "address",
          "name": "receiver",
          "type": "address"
        }
      ],
      "name": "ERC20InvalidReceiver",
      "type": "error"
    },
    {
      "inputs": [
        {
          "internalType": "address",
          "name": "sender",
          "type": "address"
        }
      ],
      "name": "ERC20InvalidSender",
      "type": "error"
    },
    {
      "inputs": [
        {
          "internalType": "address",
          "name": "spender",
          "type": "address"
        }
      ],
      "name": "ERC20InvalidSpender",
      "type": "error"
    },
    {
      "inputs": [],
      "name": "EnforcedPause",
      "type": "error"
    },
    {
      "inputs": [],
      "name": "ExpectedPause",
      "type": "error"
    },
    {
      "inputs": [],
      "name": "FailedCall",
      "type": "error"
    },
    {
      "inputs": [],
      "name": "InvalidInitialization",
      "type": "error"
    },
    {
      "inputs": [],
      "name": "NotInitializing",
      "type": "error"
    },
    {
      "inputs": [
        {
          "internalType": "address",
          "name": "owner",
          "type": "address"
        }
      ],
      "name": "OwnableInvalidOwner",
      "type": "error"
    },
    {
      "inputs": [
        {
          "internalType": "address",
          "name": "account",
          "type": "address"
        }
      ],
      "name": "OwnableUnauthorizedAccount",
      "type": "error"
    },
    {
      "inputs": [],
      "name": "UUPSUnauthorizedCallContext",
      "type": "error"
    },
    {
      "inputs": [
        {
          "internalType": "bytes32",
          "name": "slot",
          "type": "bytes32"
        }
      ],
      "name": "UUPSUnsupportedProxiableUUID",
      "type": "error"
    },
    {
      "anonymous": false,
      "inputs": [
        {
          "indexed": true,
          "internalType": "address",
          "name": "owner",
          "type": "address"
        },
        {
          "indexed": true,
          "internalType": "address",
          "name": "spender",
          "type": "address"
        },
        {
          "indexed": false,
          "internalType": "uint256",
          "name": "value",
          "type": "uint256"
        }
      ],
      "name": "Approval",
      "type": "event"
    },
    {
      "anonymous": false,
      "inputs": [
        {
          "indexed": false,
          "internalType": "uint64",
          "name": "version",
          "type": "uint64"
        }
      ],
      "name": "Initialized",
      "type": "event"
    },
    {
      "anonymous": false,
      "inputs": [
        {
          "indexed": true,
          "internalType": "address",
          "name": "previousOwner",
          "type": "address"
        },
        {
          "indexed": true,
          "internalType": "address",
          "name": "newOwner",
          "type": "address"
        }
      ],
      "name": "OwnershipTransferred",
      "type": "event"
    },
    {
      "anonymous": false,
      "inputs": [
        {
          "indexed": false,
          "internalType": "address",
          "name": "account",
          "type": "address"
        }
      ],
      "name": "Paused",
      "type": "event"
    },
    {
      "anonymous": false,
      "inputs": [
        {
          "indexed": true,
          "internalType": "address",
          "name": "from",
          "type": "address"
        },
        {
          "indexed": true,
          "internalType": "address",
          "name": "to",
          "type": "address"
        },
        {
          "indexed": false,
          "internalType": "uint256",
          "name": "value",
          "type": "uint256"
        }
      ],
      "name": "Transfer",
      "type": "event"
    },
    {
      "anonymous": false,
      "inputs": [
        {
          "indexed": false,
          "internalType": "address",
          "name": "account",
          "type": "address"
        }
      ],
      "name": "Unpaused",
      "type": "event"
    },
    {
      "anonymous": false,
      "inputs": [
        {
          "indexed": true,
          "internalType": "address",
          "name": "implementation",
          "type": "address"
        }
      ],
      "name": "Upgraded",
      "type": "event"
    },
    {
      "inputs": [],
      "name": "UPGRADE_INTERFACE_VERSION",
      "outputs": [
        {
          "internalType": "string",
          "name": "",
          "type": "string"
        }
      ],
      "stateMutability": "view",
      "type": "function"
    },
    {
      "inputs": [
        {
          "internalType": "address",
          "name": "owner",
          "type": "address"
        },
        {
          "internalType": "address",
          "name": "spender",
          "type": "address"
        }
      ],
      "name": "allowance",
      "outputs": [
        {
          "internalType": "uint256",
          "name": "",
          "type": "uint256"
        }
      ],
      "stateMutability": "view",
      "type": "function"
    },
    {
      "inputs": [
        {
          "internalType": "address",
          "name": "spender",
          "type": "address"
        },
        {
          "internalType": "uint256",
          "name": "value",
          "type": "uint256"
        }
      ],
      "name": "approve",
      "outputs": [
        {
          "internalType": "bool",
          "name": "",
          "type": "bool"
        }
      ],
      "stateMutability": "nonpayable",
      "type": "function"
    },
    {
      "inputs": [
        {
          "internalType": "address",
          "name": "account",
          "type": "address"
        }
      ],
      "name": "balanceOf",
      "outputs": [
        {
          "internalType": "uint256",
          "name": "",
          "type": "uint256"
        }
      ],
      "stateMutability": "view",
      "type": "function"
    },
    {
      "inputs": [
        {
          "internalType": "uint256",
          "name": "value",
          "type": "uint256"
        }
      ],
      "name": "burn",
      "outputs": [],
      "stateMutability": "nonpayable",
      "type": "function"
    },
    {
      "inputs": [
        {
          "internalType": "address",
          "name": "account",
          "type": "address"
        },
        {
          "internalType": "uint256",
          "name": "value",
          "type": "uint256"
        }
      ],
      "name": "burnFrom",
      "outputs": [],
      "stateMutability": "nonpayable",
      "type": "function"
    },
    {
      "inputs": [],
      "name": "decimals",
      "outputs": [
        {
          "internalType": "uint8",
          "name": "",
          "type": "uint8"
        }
      ],
      "stateMutability": "view",
      "type": "function"
    },
    {
      "inputs": [
        {
          "internalType": "string",
          "name": "_name",
          "type": "string"
        },
        {
          "internalType": "string",
          "name": "_symbol",
          "type": "string"
        },
        {
          "internalType": "uint256",
          "name": "_initialSupply",
          "type": "uint256"
        },
        {
          "internalType": "address",
          "name": "_initialOwner",
          "type": "address"
        }
      ],
      "name": "initialize",
      "outputs": [],
      "stateMutability": "nonpayable",
      "type": "function"
    },
    {
      "inputs": [],
      "name": "name",
      "outputs": [
        {
          "internalType": "string",
          "name": "",
          "type": "string"
        }
      ],
      "stateMutability": "view",
      "type": "function"
    },
    {
      "inputs": [],
      "name": "owner",
      "outputs": [
        {
          "internalType": "address",
          "name": "",
          "type": "address"
        }
      ],
      "stateMutability": "view",
      "type": "function"
    },
    {
      "inputs": [],
      "name": "pause",
      "outputs": [],
      "stateMutability": "nonpayable",
      "type": "function"
    },
    {
      "inputs": [],
      "name": "paused",
      "outputs": [
        {
          "internalType": "bool",
          "name": "",
          "type": "bool"
        }
      ],
      "stateMutability": "view",
      "type": "function"
    },
    {
      "inputs": [],
      "name": "proxiableUUID",
      "outputs": [
        {
          "internalType": "bytes32",
          "name": "",
          "type": "bytes32"
        }
      ],
      "stateMutability": "view",
      "type": "function"
    },
    {
      "inputs": [],
      "name": "renounceOwnership",
      "outputs": [],
      "stateMutability": "nonpayable",
      "type": "function"
    },
    {
      "inputs": [],
      "name": "symbol",
      "outputs": [
        {
          "internalType": "string",
          "name": "",
          "type": "string"
        }
      ],
      "stateMutability": "view",
      "type": "function"
    },
    {
      "inputs": [],
      "name": "totalSupply",
      "outputs": [
        {
          "internalType": "uint256",
          "name": "",
          "type": "uint256"
        }
      ],
      "stateMutability": "view",
      "type": "function"
    },
    {
      "inputs": [
        {
          "internalType": "address",
          "name": "to",
          "type": "address"
        },
        {
          "internalType": "uint256",
          "name": "value",
          "type": "uint256"
        }
      ],
      "name": "transfer",
      "outputs": [
        {
          "internalType": "bool",
          "name": "",
          "type": "bool"
        }
      ],
      "stateMutability": "nonpayable",
      "type": "function"
    },
    {
      "inputs": [
        {
          "internalType": "address",
          "name": "from",
          "type": "address"
        },
        {
          "internalType": "address",
          "name": "to",
          "type": "address"
        },
        {
          "internalType": "uint256",
          "name": "value",
          "type": "uint256"
        }
      ],
      "name": "transferFrom",
      "outputs": [
        {
          "internalType": "bool",
          "name": "",
          "type": "bool"
        }
      ],
      "stateMutability": "nonpayable",
      "type": "function"
    },
    {
      "inputs": [
        {
          "internalType": "address",
          "name": "newOwner",
          "type": "address"
        }
      ],
      "name": "transferOwnership",
      "outputs": [],
      "stateMutability": "nonpayable",
      "type": "function"
    },
    {
      "inputs": [],
      "name": "unpause",
      "outputs": [],
      "stateMutability": "nonpayable",
      "type": "function"
    },
    {
      "inputs": [
        {
          "internalType": "address",
          "name": "newImplementation",
          "type": "address"
        },
        {
          "internalType": "bytes",
          "name": "data",
          "type": "bytes"
        }
      ],
      "name": "upgradeToAndCall",
      "outputs": [],
      "stateMutability": "payable",
      "type": "function"
    }
  ],
  "bytecode": "0x60a06040523060805234801561001457600080fd5b50608051611df261003e60003960008181610c6e01528181610c970152610eb30152611df26000f3fe60806040526004361061016a5760003560e01c806370a08231116100cb57806395d89b411161007f578063bd3a13f611610059578063bd3a13f614610458578063dd62ed3e14610478578063f2fde38b146104ea57600080fd5b806395d89b41146103da578063a9059cbb146103ef578063ad3cb1cc1461040f57600080fd5b806379cc6790116100b057806379cc6790146103515780638456cb59146103715780638da5cb5b1461038657600080fd5b806370a08231146102da578063715018a61461033c57600080fd5b80633f4ba83a116101225780634f1ef286116101075780634f1ef2861461027b57806352d1902d1461028e5780635c975abb146102a357600080fd5b80633f4ba83a1461024457806342966c681461025b57600080fd5b806318160ddd1161015357806318160ddd146101ca57806323b872dd14610208578063313ce5671461022857600080fd5b806306fdde031461016f578063095ea7b31461019a575b600080fd5b34801561017b57600080fd5b5061018461050a565b6040516101919190611886565b60405180910390f35b3480156101a657600080fd5b506101ba6101b5366004611900565b6105df565b6040519015158152602001610191565b3480156101d657600080fd5b507f52c63247e1f47db19d5ce0460030c497f067ca4cebf71ba98eeadabe20bace02545b604051908152602001610191565b34801561021457600080fd5b506101ba61022336600461192a565b6105f9565b34801561023457600080fd5b5060405160128152602001610191565b34801561025057600080fd5b5061025961061f565b005b34801561026757600080fd5b50610259610276366004611966565b610631565b610259610289366004611a42565b61063e565b34801561029a57600080fd5b506101fa61065d565b3480156102af57600080fd5b507fcd5ed15c6e187e77e9aee88184c21f4f2182ab5827cb3b7e07fbedcd63f033005460ff166101ba565b3480156102e657600080fd5b506101fa6102f5366004611aa4565b73ffffffffffffffffffffffffffffffffffffffff1660009081527f52c63247e1f47db19d5ce0460030c497f067ca4cebf71ba98eeadabe20bace00602052604090205490565b34801561034857600080fd5b5061025961068c565b34801561035d57600080fd5b5061025961036c366004611900565b61069e565b34801561037d57600080fd5b506102596106b3565b34801561039257600080fd5b507f9016d09d72d40fdae2fd8ceac6b6234c7706214fd39c1cd1e609a0528c1993005460405173ffffffffffffffffffffffffffffffffffffffff9091168152602001610191565b3480156103e657600080fd5b506101846106c3565b3480156103fb57600080fd5b506101ba61040a366004611900565b610714565b34801561041b57600080fd5b506101846040518060400160405280600581526020017f352e302e3000000000000000000000000000000000000000000000000000000081525081565b34801561046457600080fd5b50610259610473366004611adf565b610722565b34801561048457600080fd5b506101fa610493366004611b5d565b73ffffffffffffffffffffffffffffffffffffffff91821660009081527f52c63247e1f47db19d5ce0460030c497f067ca4cebf71ba98eeadabe20bace016020908152604080832093909416825291909152205490565b3480156104f657600080fd5b50610259610505366004611aa4565b6108bd565b7f52c63247e1f47db19d5ce0460030c497f067ca4cebf71ba98eeadabe20bace0380546060917f52c63247e1f47db19d5ce0460030c497f067ca4cebf71ba98eeadabe20bace009161055b90611b90565b80601f016020809104026020016040519081016040528092919081815260200182805461058790611b90565b80156105d45780601f106105a9576101008083540402835291602001916105d4565b820191906000526020600020905b8154815290600101906020018083116105b757829003601f168201915b505050505091505090565b6000336105ed818585610923565b60019150505b92915050565b600033610607858285610935565b610612858585610a24565b60019150505b9392505050565b610627610acf565b61062f610b5d565b565b61063b3382610bfa565b50565b610646610c56565b61064f82610d5a565b6106598282610d62565b5050565b6000610667610e9b565b507f360894a13ba1a3210667c828492db98dca3e2076cc3735a920a3ca505d382bbc90565b610694610acf565b61062f6000610f0a565b6106a9823383610935565b6106598282610bfa565b6106bb610acf565b61062f610fa0565b7f52c63247e1f47db19d5ce0460030c497f067ca4cebf71ba98eeadabe20bace0480546060917f52c63247e1f47db19d5ce0460030c497f067ca4cebf71ba98eeadabe20bace009161055b90611b90565b6000336105ed818585610a24565b600061072c611019565b805490915060ff68010000000000000000820416159067ffffffffffffffff166000811580156107595750825b905060008267ffffffffffffffff1660011480156107765750303b155b905081158015610784575080155b156107bb576040517ff92ee8a900000000000000000000000000000000000000000000000000000000815260040160405180910390fd5b84547fffffffffffffffffffffffffffffffffffffffffffffffff0000000000000000166001178555831561081c5784547fffffffffffffffffffffffffffffffffffffffffffffff00ffffffffffffffff16680100000000000000001785555b6108268989611042565b61082e611054565b610836611054565b61083f8661105c565b610847611054565b610851868861106d565b83156108b25784547fffffffffffffffffffffffffffffffffffffffffffffff00ffffffffffffffff168555604051600181527fc7f505b2f371ae2175ee4913f4499e1f2633a7b5936321eed1cdaeb6115181d29060200160405180910390a15b505050505050505050565b6108c5610acf565b73ffffffffffffffffffffffffffffffffffffffff811661091a576040517f1e4fbdf7000000000000000000000000000000000000000000000000000000008152600060048201526024015b60405180910390fd5b61063b81610f0a565b61093083838360016110c9565b505050565b73ffffffffffffffffffffffffffffffffffffffff83811660009081527f52c63247e1f47db19d5ce0460030c497f067ca4cebf71ba98eeadabe20bace0160209081526040808320938616835292905220547fffffffffffffffffffffffffffffffffffffffffffffffffffffffffffffffff811015610a1e5781811015610a0f576040517ffb8f41b200000000000000000000000000000000000000000000000000000000815273ffffffffffffffffffffffffffffffffffffffff841660048201526024810182905260448101839052606401610911565b610a1e848484840360006110c9565b50505050565b73ffffffffffffffffffffffffffffffffffffffff8316610a74576040517f96c6fd1e00000000000000000000000000000000000000000000000000000000815260006004820152602401610911565b73ffffffffffffffffffffffffffffffffffffffff8216610ac4576040517fec442f0500000000000000000000000000000000000000000000000000000000815260006004820152602401610911565b610930838383611236565b33610b0e7f9016d09d72d40fdae2fd8ceac6b6234c7706214fd39c1cd1e609a0528c1993005473ffffffffffffffffffffffffffffffffffffffff1690565b73ffffffffffffffffffffffffffffffffffffffff161461062f576040517f118cdaa7000000000000000000000000000000000000000000000000000000008152336004820152602401610911565b610b65611241565b7fcd5ed15c6e187e77e9aee88184c21f4f2182ab5827cb3b7e07fbedcd63f0330080547fffffffffffffffffffffffffffffffffffffffffffffffffffffffffffffff001681557f5db9ee0a495bf2e6ff9c91a7834c1ba4fdd244a5e8aa4e537bd38aeae4b073aa335b60405173ffffffffffffffffffffffffffffffffffffffff909116815260200160405180910390a150565b73ffffffffffffffffffffffffffffffffffffffff8216610c4a576040517f96c6fd1e00000000000000000000000000000000000000000000000000000000815260006004820152602401610911565b61065982600083611236565b3073ffffffffffffffffffffffffffffffffffffffff7f0000000000000000000000000000000000000000000000000000000000000000161480610d2357507f000000000000000000000000000000000000000000000000000000000000000073ffffffffffffffffffffffffffffffffffffffff16610d0a7f360894a13ba1a3210667c828492db98dca3e2076cc3735a920a3ca505d382bbc5473ffffffffffffffffffffffffffffffffffffffff1690565b73ffffffffffffffffffffffffffffffffffffffff1614155b1561062f576040517fe07c8dba00000000000000000000000000000000000000000000000000000000815260040160405180910390fd5b61063b610acf565b8173ffffffffffffffffffffffffffffffffffffffff166352d1902d6040518163ffffffff1660e01b8152600401602060405180830381865afa925050508015610de7575060408051601f3d9081017fffffffffffffffffffffffffffffffffffffffffffffffffffffffffffffffe0168201909252610de491810190611be3565b60015b610e35576040517f4c9c8ce300000000000000000000000000000000000000000000000000000000815273ffffffffffffffffffffffffffffffffffffffff83166004820152602401610911565b7f360894a13ba1a3210667c828492db98dca3e2076cc3735a920a3ca505d382bbc8114610e91576040517faa1d49a400000000000000000000000000000000000000000000000000000000815260048101829052602401610911565b610930838361129c565b3073ffffffffffffffffffffffffffffffffffffffff7f0000000000000000000000000000000000000000000000000000000000000000161461062f576040517fe07c8dba00000000000000000000000000000000000000000000000000000000815260040160405180910390fd5b7f9016d09d72d40fdae2fd8ceac6b6234c7706214fd39c1cd1e609a0528c19930080547fffffffffffffffffffffffff0000000000000000000000000000000000000000811673ffffffffffffffffffffffffffffffffffffffff848116918217845560405192169182907f8be0079c531659141344cd1fd0a4f28419497f9722a3daafe3b4186f6b6457e090600090a3505050565b610fa86112ff565b7fcd5ed15c6e187e77e9aee88184c21f4f2182ab5827cb3b7e07fbedcd63f0330080547fffffffffffffffffffffffffffffffffffffffffffffffffffffffffffffff001660011781557f62e78cea01bee320cd4e420270b5ea74000d11b0c9f74754ebdbfc544b05a25833610bcf565b6000807ff0c57e16840df040f15088dc2f81fe391c3923bec73e23a9662efc9c229c6a006105f3565b61104a61135b565b6106598282611399565b61062f61135b565b61106461135b565b61063b816113fc565b73ffffffffffffffffffffffffffffffffffffffff82166110bd576040517fec442f0500000000000000000000000000000000000000000000000000000000815260006004820152602401610911565b61065960008383611236565b7f52c63247e1f47db19d5ce0460030c497f067ca4cebf71ba98eeadabe20bace0073ffffffffffffffffffffffffffffffffffffffff851661113a576040517fe602df0500000000000000000000000000000000000000000000000000000000815260006004820152602401610911565b73ffffffffffffffffffffffffffffffffffffffff841661118a576040517f94280d6200000000000000000000000000000000000000000000000000000000815260006004820152602401610911565b73ffffffffffffffffffffffffffffffffffffffff80861660009081526001830160209081526040808320938816835292905220839055811561122f578373ffffffffffffffffffffffffffffffffffffffff168573ffffffffffffffffffffffffffffffffffffffff167f8c5be1e5ebec7d5bd14f71427d1e84f3dd0314c0f7b2291e5b200ac8c7c3b9258560405161122691815260200190565b60405180910390a35b5050505050565b610930838383611404565b7fcd5ed15c6e187e77e9aee88184c21f4f2182ab5827cb3b7e07fbedcd63f033005460ff1661062f576040517f8dfc202b00000000000000000000000000000000000000000000000000000000815260040160405180910390fd5b6112a582611417565b60405173ffffffffffffffffffffffffffffffffffffffff8316907fbc7cd75a20ee27fd9adebab32041f755214dbc6bffa90cc0225b39da2e5c2d3b90600090a28051156112f75761093082826114e6565b610659611569565b7fcd5ed15c6e187e77e9aee88184c21f4f2182ab5827cb3b7e07fbedcd63f033005460ff161561062f576040517fd93c066500000000000000000000000000000000000000000000000000000000815260040160405180910390fd5b6113636115a1565b61062f576040517fd7e6bcf800000000000000000000000000000000000000000000000000000000815260040160405180910390fd5b6113a161135b565b7f52c63247e1f47db19d5ce0460030c497f067ca4cebf71ba98eeadabe20bace007f52c63247e1f47db19d5ce0460030c497f067ca4cebf71ba98eeadabe20bace036113ed8482611c4c565b5060048101610a1e8382611c4c565b6108c561135b565b61140c6112ff565b6109308383836115c0565b8073ffffffffffffffffffffffffffffffffffffffff163b600003611480576040517f4c9c8ce300000000000000000000000000000000000000000000000000000000815273ffffffffffffffffffffffffffffffffffffffff82166004820152602401610911565b7f360894a13ba1a3210667c828492db98dca3e2076cc3735a920a3ca505d382bbc80547fffffffffffffffffffffffff00000000000000000000000000000000000000001673ffffffffffffffffffffffffffffffffffffffff92909216919091179055565b60606000808473ffffffffffffffffffffffffffffffffffffffff16846040516115109190611d66565b600060405180830381855af49150503d806000811461154b576040519150601f19603f3d011682016040523d82523d6000602084013e611550565b606091505b5091509150611560858383611791565b95945050505050565b341561062f576040517fb398979f00000000000000000000000000000000000000000000000000000000815260040160405180910390fd5b60006115ab611019565b5468010000000000000000900460ff16919050565b7f52c63247e1f47db19d5ce0460030c497f067ca4cebf71ba98eeadabe20bace0073ffffffffffffffffffffffffffffffffffffffff841661161b57818160020160008282546116109190611d82565b909155506116cd9050565b73ffffffffffffffffffffffffffffffffffffffff8416600090815260208290526040902054828110156116a1576040517fe450d38c00000000000000000000000000000000000000000000000000000000815273ffffffffffffffffffffffffffffffffffffffff861660048201526024810182905260448101849052606401610911565b73ffffffffffffffffffffffffffffffffffffffff851660009081526020839052604090209083900390555b73ffffffffffffffffffffffffffffffffffffffff83166116f8576002810180548390039055611724565b73ffffffffffffffffffffffffffffffffffffffff831660009081526020829052604090208054830190555b8273ffffffffffffffffffffffffffffffffffffffff168473ffffffffffffffffffffffffffffffffffffffff167fddf252ad1be2c89b69c2b068fc378daa952ba7f163c4a11628f55a4df523b3ef8460405161178391815260200190565b60405180910390a350505050565b6060826117a6576117a182611820565b610618565b81511580156117ca575073ffffffffffffffffffffffffffffffffffffffff84163b155b15611819576040517f9996b31500000000000000000000000000000000000000000000000000000000815273ffffffffffffffffffffffffffffffffffffffff85166004820152602401610911565b5080610618565b8051156118305780518082602001fd5b6040517fd6bda27500000000000000000000000000000000000000000000000000000000815260040160405180910390fd5b60005b8381101561187d578181015183820152602001611865565b50506000910152565b60208152600082518060208401526118a5816040850160208701611862565b601f017fffffffffffffffffffffffffffffffffffffffffffffffffffffffffffffffe0169190910160400192915050565b803573ffffffffffffffffffffffffffffffffffffffff811681146118fb57600080fd5b919050565b6000806040838503121561191357600080fd5b61191c836118d7565b946020939093013593505050565b60008060006060848603121561193f57600080fd5b611948846118d7565b9250611956602085016118d7565b9150604084013590509250925092565b60006020828403121561197857600080fd5b5035919050565b7f4e487b7100000000000000000000000000000000000000000000000000000000600052604160045260246000fd5b600067ffffffffffffffff808411156119c9576119c961197f565b604051601f85017fffffffffffffffffffffffffffffffffffffffffffffffffffffffffffffffe0908116603f01168101908282118183101715611a0f57611a0f61197f565b81604052809350858152868686011115611a2857600080fd5b858560208301376000602087830101525050509392505050565b60008060408385031215611a5557600080fd5b611a5e836118d7565b9150602083013567ffffffffffffffff811115611a7a57600080fd5b8301601f81018513611a8b57600080fd5b611a9a858235602084016119ae565b9150509250929050565b600060208284031215611ab657600080fd5b610618826118d7565b600082601f830112611ad057600080fd5b610618838335602085016119ae565b60008060008060808587031215611af557600080fd5b843567ffffffffffffffff80821115611b0d57600080fd5b611b1988838901611abf565b95506020870135915080821115611b2f57600080fd5b50611b3c87828801611abf565b93505060408501359150611b52606086016118d7565b905092959194509250565b60008060408385031215611b7057600080fd5b611b79836118d7565b9150611b87602084016118d7565b90509250929050565b600181811c90821680611ba457607f821691505b602082108103611bdd577f4e487b7100000000000000000000000000000000000000000000000000000000600052602260045260246000fd5b50919050565b600060208284031215611bf557600080fd5b5051919050565b601f821115610930576000816000526020600020601f850160051c81016020861015611c255750805b601f850160051c820191505b81811015611c4457828155600101611c31565b505050505050565b815167ffffffffffffffff811115611c6657611c6661197f565b611c7a81611c748454611b90565b84611bfc565b602080601f831160018114611ccd5760008415611c975750858301515b7fffffffffffffffffffffffffffffffffffffffffffffffffffffffffffffffff600386901b1c1916600185901b178555611c44565b6000858152602081207fffffffffffffffffffffffffffffffffffffffffffffffffffffffffffffffe08616915b82811015611d1a57888601518255948401946001909101908401611cfb565b5085821015611d5657878501517fffffffffffffffffffffffffffffffffffffffffffffffffffffffffffffffff600388901b60f8161c191681555b5050505050600190811b01905550565b60008251611d78818460208701611862565b9190910192915050565b808201808211156105f3577f4e487b7100000000000000000000000000000000000000000000000000000000600052601160045260246000fdfea264697066735822122027a935e82b3b95272216e691a4deb82b719fbdb0419844d3036f04ba625dfd1564736f6c63430008180033",
  "linkReferences": {},
  "deployedLinkReferences": {}
}